:100000000C9435000C945D000C945D000C945D0024
:100010000C945D000C945D000C945D000C945D00EC
:100020000C945D000C945D000C945D000C945D00DC
:100030000C945D000C945D000C945D000C945D00CC
:100040000C9476000C945D000C9482010C945D007D
:100050000C945D000C945D000C945D000C945D00AC
:100060000C945D000C945D007E0211241FBECFEF46
:10007000D8E0DEBFCDBF11E0A0E0B1E0E8E5F8E0F8
:1000800002C005900D92AC33B107D9F711E0ACE393
:10009000B1E001C01D92AC3DB107E1F710E0CAE646
:1000A000D0E004C02297FE010E942604C836D10782
:1000B000C9F70E945F000C942A040C940000FF9280
:1000C0000F931F93DF93CF930F92CDB7DEB70E94AC
:1000D00017018E010F5F1F4FC8010E945901F02EBA
:1000E000012F8F2D902F0E945201FBCF1F920F9254
:1000F0000FB60F9211242F933F938F939F93AF933B
:10010000BF938091400190914101A0914201B09133
:100110004301309144010196A11DB11D232F2D5F94
:100120002D3720F02D570196A11DB11D20934401BC
:100130008093400190934101A0934201B093430109
:1001400080913C0190913D01A0913E01B0913F0111
:100150000196A11DB11D80933C0190933D01A09398
:100160003E01B0933F01BF91AF919F918F913F911D
:100170002F910F900FBE0F901F9018959B01AC010F
:100180007FB7F89480913C0190913D01A0913E0190
:10019000B0913F0166B5A89B05C06F3F19F001966D
:1001A000A11DB11D7FBFBA2FA92F982F8827860FB9
:1001B000911DA11DB11D62E0880F991FAA1FBB1FD1
:1001C0006A95D1F7BC012DC0FFB7F89480913C012E
:1001D00090913D01A0913E01B0913F01E6B5A89BF1
:1001E00005C0EF3F19F00196A11DB11DFFBFBA2F49
:1001F000A92F982F88278E0F911DA11DB11DE2E018
:10020000880F991FAA1FBB1FEA95D1F7861B970B72
:10021000885E9340C8F221503040404050406851C1
:100220007C4F211531054105510571F608957894EB
:1002300084B5826084BD84B5816084BD85B58260EB
:1002400085BD85B5816085BDEEE6F0E08081816089
:100250008083E1E8F0E01082808182608083808189
:1002600081608083E0E8F0E0808181608083E1EB61
:10027000F0E0808184608083E0EBF0E08081816049
:100280008083EAE7F0E080818460808380818260FF
:1002900080838081816080838081806880831092E8
:1002A000C100089589EC91E060E071E00E94DC03F8
:1002B0000895EF92FF920F931F9309EC11E0C8018C
:1002C00040E855E260E070E00E94B30187E0E82E6C
:1002D00081E0F82EC801B7010E94DC03C8016AE181
:1002E00071E00E94DC03C801B7010E94DC0364E6F0
:1002F00070E080E090E00E94BE001F910F91FF909F
:10030000EF9008951F920F920FB60F9211242F9322
:100310003F934F938F939F93EF93FF934091C6002A
:10032000E091C501F091C60131969F012F773070A1
:1003300031978091C7019091C8012817390739F08A
:10034000EB5BFE4F40833093C6012093C501FF91C4
:10035000EF919F918F914F913F912F910F900FBEF1
:100360000F901F901895CF93DF93EC019A01AB018A
:10037000E885F985203081EE380780E0480780E085
:10038000580709F449C081E090E00A8802C0880F4C
:10039000991F0A94E2F7808360E079E08DE390E0B2
:1003A0000E9409042150304040405040CA01B90128
:1003B00022E030E040E050E00E940904EC81FD8141
:1003C0003083EE81FF812083EA85FB85208141E037
:1003D00050E0CA010E8402C0880F991F0A94E2F708
:1003E000282B2083EA85FB852081CA010F8402C067
:1003F000880F991F0A94E2F7282B2083EA85FB8552
:100400008081088802C0440F551F0A94E2F7842BAC
:100410008083DF91CF910895108220E130E0CECF2C
:10042000DC011296ED91FC911397E058FF4F21915A
:10043000319180819181281B390B2F773070C90150
:100440000895DC011296ED91FC911397EE57FF4F42
:100450002081318192918291E058F0408217930778
:1004600019F42FEF3FEF05C0E20FF31F8081282F13
:1004700030E0C9010895DC011296ED91FC911397CB
:10048000DF01AE57BF4F2D913C911197E058FF4FC0
:1004900080819181E058F0408217930719F42FEF83
:1004A0003FEF0BC0E20FF31F80812F5F3F4F2F778D
:1004B00030702D933C93282F30E0C9010895DC0162
:1004C0001296ED91FC911397EE57FF4F8081918129
:1004D000929382930895FC01A085B18521898C9126
:1004E00090E0022E02C0959587950A94E2F780FF6E
:1004F000F6CF0484F585E02D608308958DE291E0C8
:100500009093CA018093C90185E491E09093CC0156
:100510008093CB0185EC90E09093CE018093CD0148
:1005200084EC90E09093D0018093CF0180EC90E038
:100530009093D2018093D10181EC90E09093D4010B
:100540008093D30186EC90E09093D6018093D501FF
:1005500084E08093D70183E08093D80187E0809383
:10056000D90185E08093DA0181E08093DB01089571
:100570000F931F93CF93DF938C01EB0109C021965A
:10058000D801ED91FC910190F081E02DC801099511
:1005900068816623A1F7DF91CF911F910F91089594
:1005A000EF92FF920F931F93CF93DF938C017B0108
:1005B000EA010CC0D7016D917D01D801ED91FC914C
:1005C0000190F081E02DC80109952197209791F7BE
:1005D000DF91CF911F910F91FF90EF900895DC0173
:1005E000ED91FC910280F381E02D099508952F9201
:1005F0003F924F925F926F927F928F929F92AF92B3
:10060000BF92CF92DF92EF92FF920F931F93DF93EF
:10061000CF93CDB7DEB7A0970FB6F894DEBF0FBE6D
:10062000CDBF1C016A017B014115510561057105B2
:1006300049F440E350E060E070E020E030E00E94E8
:100640008F0354C0882499245401422E55246624D3
:10065000772401E010E00C0F1D1F080D191DC701C4
:10066000B601A30192010E94E703F8016083089498
:10067000811C911CA11CB11CC701B601A3019201F0
:100680000E94E703C901DA016C017D01C114D104A4
:10069000E104F104F1F681E0E82EF12CEC0EFD1EF0
:1006A000E80CF91C3E010894611C711CD501C401C1
:1006B0000197A109B1096C01C818D90814C0F60145
:1006C000EE0DFF1D40814A3010F4405D01C0495CD1
:1006D00050E060E070E0C10120E030E00E948F0354
:1006E0000894E108F1086E147F0449F7A0960FB64C
:1006F000F894DEBF0FBECDBFCF91DF911F910F9158
:10070000FF90EF90DF90CF90BF90AF909F908F9031
:100710007F906F905F904F903F902F900895EF9251
:10072000FF920F931F93CF93DF93EC017A018B011C
:100730002115310541F4E881F9810190F081E02D26
:10074000642F09951BC02A303105B1F477FF10C022
:100750004DE250E060E070E020E030E00E948F0366
:1007600010950095F094E094E11CF11C011D111D01
:10077000CE01B801A7012AE00E94F702DF91CF91D4
:100780001F910F91FF90EF9008950F931F938C018D
:100790004DE050E060E070E020E030E00E948F0328
:1007A000C8014AE050E060E070E020E030E00E94E4
:1007B0008F031F910F9108950F931F938C010E9437
:1007C000EF02C8010E94C5031F910F910895A1E295
:1007D0001A2EAA1BBB1BFD010DC0AA1FBB1FEE1FBB
:1007E000FF1FA217B307E407F50720F0A21BB30B06
:1007F000E40BF50B661F771F881F991F1A9469F782
:1008000060957095809590959B01AC01BD01CF01DD
:10081000089597FB092E05260ED057FD04D0D7DF8B
:100820000AD0001C38F450954095309521953F4FE3
:100830004F4F5F4F0895F6F79095809570956195AD
:100840007F4F8F4F9F4F0895EE0FFF1F0590F4913C
:08085000E02D0994F894FFCF9C
:10085800757064617465002D2D2D2D2D2D2D2D2D78
:100868002D2D2D2D2D2D2D2D2D0020202068656C52
:100878006C6F20776F726C6400000000006B02B828
:0C08880002D00210023B0221025F0200BD
:00000001FF
